{"abi":[{"type":"function","name":"computeAddress","inputs":[{"name":"salt","type":"bytes32","internalType":"bytes32"},{"name":"bytecodeHash","type":"bytes32","internalType":"bytes32"}],"outputs":[{"name":"addr","type":"address","internalType":"address"}],"stateMutability":"view"},{"type":"function","name":"deploy","inputs":[{"name":"amount","type":"uint256","internalType":"uint256"},{"name":"salt","type":"bytes32","internalType":"bytes32"},{"name":"bytecode","type":"bytes","internalType":"bytes"}],"outputs":[{"name":"addr","type":"address","internalType":"address"}],"stateMutability":"payable"},{"type":"error","name":"Create2EmptyBytecode","inputs":[]},{"type":"error","name":"Create2FailedDeployment","inputs":[]},{"type":"error","name":"Create2InsufficientBalance","inputs":[{"name":"received","type":"uint256","internalType":"uint256"},{"name":"minimumNeeded","type":"uint256","internalType":"uint256"}]}],"bytecode":{"object":"0x6080604052348015600f57600080fd5b5061026d8061001f6000396000f3fe6080604052600436106100295760003560e01c8063481286e61461002e57806366cfa0571461006a575b600080fd5b34801561003a57600080fd5b5061004e610049366004610133565b61007d565b6040516001600160a01b03909116815260200160405180910390f35b61004e61007836600461016b565b6100a8565b604080519081018290526020810183905230808252600091600b0160ff815360559020949350505050565b6000833410156100d85760405163392efb2b60e21b81523460048201526024810185905260440160405180910390fd5b81516000036100fa57604051631328927760e21b815260040160405180910390fd5b8282516020840186f590506001600160a01b03811661012c57604051633a0ba96160e11b815260040160405180910390fd5b9392505050565b6000806040838503121561014657600080fd5b50508035926020909101359150565b634e487b7160e01b600052604160045260246000fd5b60008060006060848603121561018057600080fd5b8335925060208401359150604084013567ffffffffffffffff8111156101a557600080fd5b8401601f810186136101b657600080fd5b803567ffffffffffffffff8111156101d0576101d0610155565b604051601f8201601f19908116603f0116810167ffffffffffffffff811182821017156101ff576101ff610155565b60405281815282820160200188101561021757600080fd5b81602084016020830137600060208383010152809350505050925092509256fea264697066735822122027b73eb7e9930be667884208ad3d282bd3a8d66ca9a71d07dd068f86f9018e6d64736f6c634300081a0033","linkReferences":{}},"methodIdentifiers":{"computeAddress(bytes32,bytes32)":"481286e6","deploy(uint256,bytes32,bytes)":"66cfa057"},"id":0}